:100000000C941A010C9437010C9437010C943701AD
:100010000C9437010C9437010C9437010C94370180
:100020000C9437010C9437010C9437010C94370170
:100030000C9437010C9437010C9437010C94370160
:100040000C9473010C9437010C9437010C94370114
:100050000C9437010C9437010C9437010C94370140
:100060000C9437010C9437010C9437010C94370130
:100070000C9437010C9437010C9437010763423616
:10008000B79BD8A71A39685618AEBAAB558C1D3C29
:10009000B7CC5763BD6DEDFD753EF6177231BF00ED
:1000A0000000803F08000000BE922449123EABAA27
:1000B000AA2ABECDCCCC4C3E00000080BEABAAAA82
:1000C000AA3E00000000BF000000803F00000000CA
:1000D00000084178D3BB4387D1133D190E3CC3BD03
:1000E0004282AD2B3E68EC8276BED98FE1A93E4CB0
:1000F00080EFFFBE01C4FF7F3F00000000004E41C3
:100100004E494E495459494E46CDCCCC3D0AD72391
:100110003C17B7D13877CC2B329595E6241FB14FD9
:100120000A000020410000C84200401C4620BCBE1E
:100130004CCA1B0E5AAEC59D7400407A10F35A008B
:10014000A0724E18090010A5D4E80000E876481700
:100150000000E40B54020000CA9A3B000000E1F5E5
:1001600005000080969800000040420F000000A0AB
:100170008601000000102700000000E803000000D6
:10018000006400000000000A000000000001000000
:100190000000002C76D888DC674F0823DFC1DFAE73
:1001A00059E1B1B796E5E3E453C63AE6519976963C
:1001B000E8E6C28426EB898C9B62ED407C6FFCEF05
:1001C000BC9C9F40F2BAA56FA5F490055A2AF75C33
:1001D000936B6CF9676DC11BFCE0E40D47FEF520E5
:1001E000E6B500D0ED902E030094357705008084AD
:1001F0001E080000204E0A000000C80C33333333C1
:100200000F986E12831141EF8D2114893BE655162C
:10021000CFFEE6DB18D1844B381BF77C1D901DA464
:10022000BBE424203284725E228100C9F124ECA157
:10023000E53D270011241FBECFEFD8E0DEBFCDBFC4
:1002400011E0A0E0B1E0E2EBFAE102C005900D920E
:10025000AE32B107D9F721E0AEE2B1E001C01D92A4
:10026000A433B207E1F70E94A0020C94570D0C943E
:100270000000109285001092840022E020938100FB
:10028000209184003091850028173907C8F3109217
:10029000810008950F931F93CF93DF938C01C0E0EB
:1002A000D0E005C088EE93E00E9439012196C01786
:1002B000D107C0F3DF91CF911F910F9108958FE087
:1002C00081B98FEF82B984B1887F84B985B18760A5
:1002D00085B9089582E084BD95E095BD9DE497BD04
:1002E00080936E0008951F920F920FB60F92112403
:1002F0002F933F934F935F936F938F939F93AF93FE
:10030000BF93EF93FF931A9B3AC0189B3AC0199B77
:100310003AC0E0E0F0E060E02EC081E090E00E2E18
:1003200002C0880F991F0A94E2F7809582B90000F5
:1003300020E030E01AC080B190E0A9014C5F5F4F2F
:1003400002C0959587954A95E2F780FD0CC0CF01D4
:10035000880F991F880F991F8F5F9E4FDC01A20F96
:10036000B31F6C9105C02F5F3F4F243031051CF344
:1003700061110AC03196E430F1057CF205C063E4F6
:1003800003C063E501C06EE56623D1F080912F01C3
:10039000681313C080912E018F5F80932E018330EC
:1003A000A0F080910001882381F06093300181E00A
:1003B000809331011092000108C010922E0105C0F7
:1003C00010922E0181E08093000160932F01FF9134
:1003D000EF91BF91AF919F918F916F915F914F91ED
:1003E0003F912F910F900FBE0F901F901895CF93B4
:1003F000C82F88B18F709C2F907F892B88B988B1C6
:100400008E7F88B988B1826088B981E090E00E94CF
:10041000390188B18D7F88B988EC90E00E9439015C
:1004200028B130E1C39FC0011124922F9F70892B06
:1004300088B988B1826088B981E090E00E94390172
:1004400088B18D7F88B982E090E00E944A01CF9107
:100450000895CF93C82F88B18F709C2F907F892BE0
:1004600088B988B1816088B988B1826088B981E033
:1004700090E00E94390188B18D7F88B988EC90E0C6
:100480000E94390128B130E1C39FC0011124922F8D
:100490009F70892B88B988B1826088B981E090E02B
:1004A0000E94390188B18D7F88B982E090E00E9476
:1004B0004A01CF9108958FEF87B984E190E00E94BF
:1004C0004A0182E00E94F70188E20E94F7018CE075
:1004D0000E94F70181E00E94F70182E090E00E9413
:1004E0004A010895CF93DF93EC0103C021960E9447
:1004F000290288818111FACFDF91CF9108950F935E
:100500001F93CF93DF93CDB7DEB760970FB6F89404
:10051000DEBF0FBECDBF8E010F5F1F4F26E040E054
:100520000E943509C8010E94720260960FB6F894C5
:10053000DEBF0FBECDBFDF91CF911F910F91089508
:10054000CF93DF93CDB7DEB764970FB6F894DEBFD5
:100550000FBECDBF0E945B020E945F010E946A0134
:1005600078941A821982FE0133968EE0DF011D9283
:100570008A95E9F7D12CB12CA12C712CC12C198AA8
:100580001A8A1B8A1C8A612C512C412C312C912CEB
:1005900010E007C013E005C0198A1A8A1B8A1C8A5A
:1005A00013E0809131018823E1F300913001109232
:1005B0003101033409F410E0113001F138F0123048
:1005C00009F4BDC0133009F441C1EBCF198281E0B9
:1005D0000E94F70181E191E00E947202D12CB12CBE
:1005E000A12C712CC12C198A1A8A1B8A1C8A612C95
:1005F000512C412C312C912C11E0D3CF033489F2B2
:1006000080ED800F8A3030F00E3221F00D3239F556
:10061000911025C0911005C00D3219F081E00E94A3
:10062000F701BEE0B91508F4BCCFFF24F394F90C30
:10063000E1E0F0E0EC0FFD1FE90DF11D0083E1E0CA
:10064000F0E0EC0FFD1FEF0DF11D108281E00E9424
:10065000F701CE0101960E9472029F2CA2CF0B32AD
:1006600041F00D3231F00A3221F00F3211F00E3527
:10067000F9F4992009F495CF6AE171E0CE01019671
:100680000E945909892B09F48CCFCE0101960E9452
:100690005509662E572E482E392E198281E00E9468
:1006A000F701802F0E942902D02E912C12E079CFE1
:1006B000033509F076CF992081F06AE171E0CE012F
:1006C00001960E945909892B41F0CE0101960E94A2
:1006D0005509662E572E482E392E20E030E0A9010C
:1006E000662D752D842D932D0E94970588234CF43B
:1006F00081E00E94F7018CE191E00E94720210E01B
:1007000050CF662D752D842D932D0E94B907B62EDE
:10071000A72E782EC92E80EC0E94F70187E291E087
:100720000E9472026B2D7A2D872D9C2D0E947F02D4
:1007300019826B2C5A2C472C3C2C912C32CF033431
:1007400009F42FCF80ED800F8A3030F00E3221F087
:100750000D3241F5911026C0911003C081E00E9436
:10076000F7018EE0891508F41CCFFF24F394F90CEF
:10077000E1E0F0E0EC0FFD1FE90DF11D0083E1E089
:10078000F0E0EC0FFD1FEF0DF11D108281E00E94E3
:10079000F7018D2D0E942902CE0101960E9472025E
:1007A0009F2CFFCE0D33B9F48981882309F4F2CE52
:1007B0006AE171E0CE0101960E945909892B09F482
:1007C000EBCECE0101960E945509698B7A8B8B8BFB
:1007D0009C8B13E0E6CE033509F0E3CE89818823B4
:1007E00041F0CE0101960E945509698B7A8B8B8B63
:1007F0009C8B20E030E0A90169897A898B899C89EA
:100800000E94970588234CF481E00E94F7018CE157
:1008100091E00E94720210E0C4CE69897A898B89C6
:100820009C890E94B907698B7A8B8B8B9C8B81E0AA
:100830000E94F7018D2D0E94290269897A898B898E
:100840009C890E947F021982912CABCEADE2DA1610
:1008500001F1AD1538F0BAE2DB1651F18BE2D81692
:1008600049F0E3C0AFE2DA1609F4BDC0BEE5DB161D
:1008700071F1DBC029893A894B895C89662D752D18
:10088000842D932D0E942B05B62EA72E782EC92ECF
:10089000CCC029893A894B895C89662D752D842DB8
:1008A000932D0E942A05B62EA72E782EC92EBDC0E4
:1008B00029893A894B895C89662D752D842D932D64
:1008C0000E94F606B62EA72E782EC92EAEC06989D4
:1008D0007A898B899C890E940E067B01072E000C69
:1008E000880B990B0E9446069B01AC0169897A89A5
:1008F0008B899C890E949705811152C01E141F0488
:100900009CF021C0262D352D442D532D6B2D7A2D95
:10091000872D9C2D0E94F606B62EA72E782EC92E66
:100920008FEF881A980A0BC0812C912CB12CA12C26
:100930006894772477F80F2EFFE3CF2EF02D8E14D6
:100940009F0404F372C0FF20E4F0B12CA12C689442
:10095000772477F80F2EFFE3CF2EF02D66C0262DDB
:10096000352D442D532D6B2D7A2D872D9C2D0E94D6
:100970009C05B62EA72E782EC92EA1E08A1A9108C2
:100980000BC0812C912CB12CA12C6894772477F882
:100990000F2EFFE3CF2EF02DE814F90404F345C029
:1009A00020E030E0A901662D752D842D932D0E9445
:1009B000970588234CF481E00E94F7018CE191E0D7
:1009C0000E94720210E0EDCD29893A894B895C8939
:1009D000662D752D842D932D0E946307B62EA72EAC
:1009E000782EC92E22C020E030E0A90169897A89D9
:1009F0008B899C890E949705811109C081E00E9422
:100A0000F7018CE191E00E94720210E0CACD2989C1
:100A10003A894B895C89662D752D842D932D0E9412
:100A20009C05B62EA72E782EC92E80EC0E94F701C9
:100A300087E291E00E9472026B2D7A2D872D9C2D0A
:100A40000E947F0219826B2C5A2C472C3C2C912C33
:100A500011E0A7CD5058BB27AA270E9442050C944D
:100A6000BC060E94AE0638F00E94B50620F039F4AC
:100A70009F3F19F426F40C94AB060EF4E095E7FBC7
:100A80000C94A506E92F0E94CD0658F3BA17620709
:100A900073078407950720F079F4A6F50C94EF0608
:100AA0000EF4E0950B2EBA2FA02D0B01B901900189
:100AB0000C01CA01A0011124FF27591B99F0593FCD
:100AC00050F4503E68F11A16F040A22F232F342F15
:100AD0004427585FF3CF469537952795A795F04063
:100AE0005395C9F77EF41F16BA0B620B730B840B78
:100AF000BAF09150A1F0FF0FBB1F661F771F881F30
:100B0000C2F70EC0BA0F621F731F841F48F4879587
:100B100077956795B795F7959E3F08F0B0CF939579
:100B2000880F08F09927EE0F9795879508950E94F2
:100B3000810608F481E008950E94B0050C94BC067B
:100B40000E94B50658F00E94AE0640F029F45F3FBF
:100B500029F00C94A50651110C94F0060C94AB06E8
:100B60000E94CD0668F39923B1F3552391F3951BA9
:100B7000550BBB27AA2762177307840738F09F5FBE
:100B80005F4F220F331F441FAA1FA9F335D00E2E2B
:100B90003AF0E0E832D091505040E695001CCAF798
:100BA0002BD0FE2F29D0660F771F881FBB1F26175B
:100BB00037074807AB07B0E809F0BB0B802DBF0132
:100BC000FF2793585F4F3AF09E3F510578F00C9401
:100BD000A5060C94F0065F3FE4F3983ED4F38695A7
:100BE00077956795B795F7959F5FC9F7880F911D22
:100BF0009695879597F90895E1E0660F771F881F0E
:100C0000BB1F621773078407BA0720F0621B730BC0
:100C1000840BBA0BEE1F88F7E09508950E94150625
:100C20006894B1110C94F00608950E94D50688F0DE
:100C30009F5798F0B92F9927B751B0F0E1F0660FA0
:100C4000771F881F991F1AF0BA95C9F714C0B130E1
:100C500091F00E94EF06B1E008950C94EF06672F23
:100C6000782F8827B85F39F0B93FCCF38695779510
:100C70006795B395D9F73EF49095809570956195F9
:100C80007F4F8F4F9F4F0895E89409C097FB3EF424
:100C900090958095709561957F4F8F4F9F4F9923C9
:100CA000A9F0F92F96E9BB279395F6958795779547
:100CB0006795B795F111F8CFFAF4BB0F11F460FF07
:100CC0001BC06F5F7F4F8F4F9F4F16C0882311F05F
:100CD00096E911C0772321F09EE8872F762F05C073
:100CE000662371F096E8862F70E060E02AF09A950E
:100CF000660F771F881FDAF7880F9695879597F903
:100D00000895990F0008550FAA0BE0E8FEEF16169C
:100D10001706E807F907C0F012161306E407F507EF
:100D200098F0621B730B840B950B39F40A2661F063
:100D3000232B242B252B21F408950A2609F4A14006
:100D4000A6958FEF811D811D089597F99F6780E813
:100D500070E060E008959FEF80EC089500240A940D
:100D60001616170618060906089500240A94121686
:100D70001306140605060895092E0394000C11F4B9
:100D8000882352F0BB0F40F4BF2B11F460FF04C066
:100D90006F5F7F4F8F4F9F4F089557FD9058440FBF
:100DA000551F59F05F3F71F04795880F97FB991FCA
:100DB00061F09F3F79F08795089512161306140687
:100DC000551FF2CF4695F1DF08C016161706180614
:100DD000991FF1CF86957105610508940895E894EF
:100DE000BB2766277727CB0197F908950E9409074B
:100DF0000C94BC060E94AE0638F00E94B50620F0A6
:100E0000952311F00C94A5060C94AB0611240C94B8
:100E1000F0060E94CD0670F3959FC1F3950F50E048
:100E2000551F629FF001729FBB27F00DB11D639F9C
:100E3000AA27F00DB11DAA1F649F6627B00DA11D42
:100E4000661F829F2227B00DA11D621F739FB00DE8
:100E5000A11D621F839FA00D611D221F749F332758
:100E6000A00D611D231F849F600D211D822F762FF1
:100E70006A2F11249F5750409AF0F1F088234AF0CE
:100E8000EE0FFF1FBB1F661F771F881F915050403A
:100E9000A9F79E3F510580F00C94A5060C94F0062E
:100EA0005F3FE4F3983ED4F3869577956795B795C1
:100EB000F795E7959F5FC1F7FE2B880F911D9695DB
:100EC000879597F90895FA01EE0FFF1F30962105D7
:100ED0003105A1F16115710561F48038BFE39B070D
:100EE00049F168949038810561F08038BFEF9B0725
:100EF00041F099234AF5FF3FE1053105210519F13C
:100F0000E8940894E795D901AA2329F4AB2FBE2FC2
:100F1000F85FD0F310C0FF5F70F4A695E0F7F739E3
:100F200050F019F0FF3A38F49F779F930DD00F904F
:100F300007FC9058089546F00C94AB0660E070E012
:100F400080E89FE308954FE79F775F934F933F9328
:100F50002F930E94B9082F913F914F915F910E946A
:100F6000F6060C94010819F416F40C94AB060C94D4
:100F700033080E94D506B8F39923C9F3B6F39F57F7
:100F8000550B87FF0E9441080024A0E640EA90012B
:100F900080585695979528F4805C660F771F881FB8
:100FA00020F026173707480730F4621B730B840BB9
:100FB000202931294A2BA6951794079420253125FD
:100FC0004A2758F7660F771F881F20F02617370724
:100FD000480730F4620B730B840B200D311D411D4B
:100FE000A09581F7B901842F9158880F9695879520
:100FF000089529F416F00C94A5060C94EF060C94B1
:10100000AB060E94D506A8F39638A0F707F80F9212
:10101000E8942BE33AEA48EB5FE70E940C070F9253
:101020000F920F924DB75EB70F920E940109ECE745
:10103000F0E00E9448084F915F91EF91FF91E59594
:10104000EE1FFF1F49F0FE57E0684427EE0F441FD4
:10105000FA95E1F74195550B0E947B080F9007FE2A
:101060000C946F0808959F3F31F0915020F48795BC
:1010700077956795B795880F911D9695879597F900
:10108000089591505040660F771F881FD2F708953A
:10109000DF93CF931F930F93FF92EF92DF927B0129
:1010A0008C01689406C0DA2EEF010E940907FE0148
:1010B000E894A5912591359145915591A6F3EF01BD
:1010C0000E944205FE019701A801DA9469F7DF90BA
:1010D000EF90FF900F911F91CF91DF9108959B01A9
:1010E000AC0160E070E080E89FE30C949C050C94F8
:1010F000A5060C9433080E94D506D8F39923C9F3AA
:10110000940F511DA3F39150504094F059F088234F
:1011100032F0660F771F881F91505040C1F79E3FF5
:1011200051052CF7880F911D9695879597F908958D
:101130005F3FACF0983E9CF0BB278695779567950E
:10114000B79508F4B1609395C1F7BB0F58F711F448
:1011500060FFE8CF6F5F7F4F8F4F9F4FE3CF0C94BF
:10116000F00616F00C9433080C94AB0668940C94BB
:10117000A5060E94D506A8F39923C1F3AEF3DF9329
:10118000CF931F930F93FF92C92FDD2788232AF057
:101190002197660F771F881FDAF720E030E040E8DC
:1011A0005FEB9FE3883920F0803E38F021968F77FF
:1011B0000E942B05E4EAF0E004C00E942B05E1ED5B
:1011C000F0E00E9448088B01BE01EC01FB2E6F5736
:1011D00071097595771F880B990B0E94460628E1C7
:1011E00032E741E35FE30E940907AF2D9801AE01AA
:1011F000FF900F911F91CF91DF910E9442050C94B7
:10120000BC06FA01DC01AA0FBB1F9B01AC01BF5752
:1012100028F4222733274427507820C0B75190F470
:10122000AB2F0024469537952795011CA395D2F343
:10123000002071F0220F331F441FB395DAF30ED054
:101240000C942A0561307105A0E88A07B94630F48C
:101250009B01AC016627772788279078309621F08C
:1012600020833183428353830895EF920F931F931A
:10127000CF93DF93E80147FD02C034E001C034E1C1
:10128000042E000C550B57FF03C051954195510991
:10129000E32E022F242FAE010E946209CE01DF91BE
:1012A000CF911F910F91EF900895662777270C94A7
:1012B000BC0AFB01DC018D91019080190110D9F36A
:1012C000990B0895A9E0B0E0E8E6F9E00C94170D59
:1012D0006A01122FB02E2BE3201720F0FF24F39485
:1012E000F00E02C02CE3F22E0F2D27E0AE014F5F6F
:1012F0005F4F0E940A0CBC014981842F89708130A4
:1013000031F0E1FC06C0E0FE06C090E205C09DE2BF
:1013100003C09BE201C090E05E2D507143FF3CC0D2
:10132000911102C083E001C084E0811718F4212FDD
:10133000281B01C020E051110BC0F601822F30E2C2
:10134000882319F031938150FBCFC20ED11C20E0CD
:10135000992329F0D6019C93F60131966F01C601BD
:101360000396E2FE0AC03EE4D6013C9341E41196A6
:101370004C93119712963C9306C03EE6F6013083DB
:1013800041E641833283FC01322F40E2332309F4EA
:1013900042C041933150FACF42FF44C0911102C084
:1013A00083E001C084E0811718F4212F281B01C0BD
:1013B00020E051110BC0F601822F30E2882319F092
:1013C00031938150FBCFC20ED11C20E0992329F02C
:1013D000D6019C93F60131966F01C6010396E2FE99
:1013E0000BC039E4D6013C933EE411963C9311972F
:1013F00036E412963C9307C039E6F60130833EE6A8
:10140000318336E63283FC01322F40E2332319F078
:1014100041933150FBCFFC01E20FF11D10828EEFA2
:101420009FEFA6C021E030E0911102C020E030E043
:10143000161617061CF4FB01319602C0E1E0F0E03D
:101440002E0F3F1FBB2021F0EB2DF0E0319602C0A4
:10145000E0E0F0E02E0F3F1FE12FF0E02E173F07F6
:101460001CF4121B212F01C020E08E2D887159F42D
:10147000F601822F30E2882319F031938150FBCF9F
:10148000C20ED11C20E0992329F0D6019C93F601CD
:1014900031966F0151110BC0F601822F90E3882322
:1014A00019F091938150FBCFC20ED11C20E00F2D7B
:1014B000060F9A81342F307144FF03C0913309F431
:1014C0000150101624F4093018F008E001C001E0C2
:1014D000AB0177FF02C040E050E0FB01E41BF50BDD
:1014E000A1E0B0E0AC0FBD1FEA0FFB1F8EE2A82EFB
:1014F0004B01801A91080B2D10E0119501951109EF
:101500004F3FBFEF5B0721F4D601AC9211966D01FE
:10151000641775072CF08416950614F4818101C0B8
:1015200080E3415051093196D60111967D01401753
:10153000510724F0D6018C936701E2CF6417750739
:1015400039F4963320F4953319F4311101C081E355
:10155000F6018083F701822F90E2882319F091939E
:101560008150FBCFF701E20FF11D108280E090E087
:101570002996ECE00C94330DA0E0B0E0E2ECFAE048
:101580000C94170DEC016B016115710519F0FB014D
:10159000918380837E01FFEFEF1AFF0A0881802F7D
:1015A00090E00E94E20C892B11F0E701F3CF0D329D
:1015B00039F47E0182E0E80EF11C098111E008C0D7
:1015C0000B3229F47E0192E0E90EF11C098110E052
:1015D000E701219743E050E066E071E0CE010E9410
:1015E000EB0C892BC1F4239645E050E061E071E0FB
:1015F000CE010E94EB0C892B09F42596C114D1046D
:1016000019F0F601D183C0831111F6C060E070E0DB
:1016100080E89FE7FAC043E050E06EEF70E0CE0153
:101620000E94EB0C892B59F4C114D10409F4E9C0D0
:10163000F2E0EF0EF11CF601F182E082E2C020E060
:1016400030E0A901C0E0D0E0F70180EDA82EA00EA7
:1016500089E08A1530F1912F9260B92E812F887020
:1016600012FF04C0811124C0219622C0811121974C
:10167000A5E0B0E00E94060DDC01CB01880F991FA8
:10168000AA1FBB1F9C01AD012A0D311D411D511D1B
:10169000283989E93807480789E1580748F0166072
:1016A00006C09EEFA9120AC013FD40C01860B12EFB
:1016B0008FEFE81AF80A00811B2DC6CF802F8F7D8F
:1016C0008534A1F580818D3211F4106106C08B3212
:1016D00021F0319661E070E004C08181329662E0D1
:1016E00070E080538A3018F0E61BF70B1FC060E0F3
:1016F00070E060389CE079075CF4DB01AA0FBB1F47
:10170000AA0FBB1F6A0F7B1F660F771F680F711D23
:101710003196DF0111978C9180538A3050F314FF7A
:1017200003C0719561957109C60FD71F11FF08C0DD
:10173000C114D10429F0CF010197F6019183808370
:10174000CA01B9010E944406212F2370233019F0E9
:101750004B015C0106C04B015C01B7FAB094B7F8CD
:10176000B09420E030E0A901C501B4010E949705C2
:10177000882309F43EC0D7FF06C0D195C195D10991
:101780000DE111E002C005E311E06801F8E1CF1AB4
:10179000D10890E2E92EF12CCE15DF0574F0F801A6
:1017A0002591359145915491C501B4010E94F606E9
:1017B0004B015C01CE19DF09EFCF04501109F594FC
:1017C000E7940C151D0541F78A2D880F8B2D881F76
:1017D0008F3F49F020E030E0A901C501B4010E942B
:1017E0009705811106C082E290E0909333018093C7
:1017F0003201C501B40109C060E070E080E89FEFEC
:1018000004C060E070E080EC9FE7CDB7DEB7ECE0AD
:101810000C94330D283008F027E03327DA01990FB4
:10182000311D87FD916000966105710539F43260C4
:101830002E5F3D9330E32A95E1F708959F3F30F006
:1018400080387105610509F03C5F3C5F3D93913044
:1018500008F08068911DDF93CF931F930F93FF9241
:10186000EF92192F987F9695E92F96959695E90F07
:10187000FF27ED56FE4F99273327EE24FF24A701BB
:10188000E70105900894079428F4360FE71EF81E28
:10189000491F511D660F771F881F991F0694A1F7D6
:1018A0000590079428F4E70EF81E491F561FC11D26
:1018B000770F881F991F661F0694A1F7059007945C
:1018C00028F4F80E491F561FC71FD11D880F991FF6
:1018D000661F771F0694A1F70590079420F4490F1F
:1018E000561FC71FD81F990F661F771F881F0694A2
:1018F000A9F784911095177041F0D695C795579523
:101900004795F794E7941A95C1F7E9E3F1E06894F5
:101910001590159135916591959105907FE273959C
:10192000E118F10A430B560BC90BD009C0F7E10CC3
:10193000F11E431F561FC91FD01D7EF4703311F4D2
:101940008A95E6CFE894015030F0080F0AF400279A
:10195000021708F4202F2395022F7A3328F079E319
:101960007D932A95E9F710C07D932A9589F6069410
:1019700097956795379517951794E118F10A430BDA
:10198000560BC90BD00998F023957E9173957A3345
:1019900008F070E37C932013B8F77E9170617D931B
:1019A00030F0839571E37D9370E32A95E1F711247C
:1019B000EF90FF900F911F91CF91DF91992787FDB5
:1019C0009095089591110C94030D803219F089506F
:1019D0008550C8F70895FB01DC014150504088F064
:1019E0008D9181341CF08B350CF4805E65916134EF
:1019F0001CF06B350CF4605E861B611171F3990B62
:101A00000895881BFCCF9927882708950E94480DC8
:101A1000A59F900DB49F900DA49F800D911D112442
:101A200008952F923F924F925F926F927F928F9282
:101A30009F92AF92BF92CF92DF92EF92FF920F935D
:101A40001F93CF93DF93CDB7DEB7CA1BDB0B0FB667
:101A5000F894DEBF0FBECDBF09942A883988488824
:101A60005F846E847D848C849B84AA84B984C884BA
:101A7000DF80EE80FD800C811B81AA81B981CE0FB1
:101A8000D11D0FB6F894DEBF0FBECDBFED01089596
:101A9000A29FB001B39FC001A39F700D811D1124AF
:101AA000911DB29F700D811D1124911D0895F89410
:021AB000FFCF66
:101AB200012E2F2A3D38392B2D343536373031322D
:101AC2003352656164792E2E2E002D004D617468AB
:0E1AD200204572726F7200416E733D2000005D
:00000001FF
