S01700004763634170706C69636174696F6E322E737265635A
S11300000C94D9010C94F6010C94F6010C94F601AD
S11300100C94F6010C94F6010C94F6010C94F60180
S11300200C94F6010C94F6010C94F6010C94F60170
S11300300C94F6010C94F6010C94F6010C94F60160
S11300400C943E020C94F6010C94F6010C94F60107
S11300500C94F6010C94F6010C94F6010C94F60140
S11300600C94F6010C94F6010C94F6010C94F60130
S11300700C94F6010C94F6010C94F6014D049D04C5
S11300808405DD052F061504FD075608AE080F0983
S11300906809C10915046F0BCA0BEC0B05A84CCDFC
S11300A0B2D44EB93836A9020C50B9918688083CAE
S11300B0A6AAAA2ABE000000803F08000000BE9243
S11300C02449123EABAAAA2ABECDCCCC4C3E000099
S11300D00080BEABAAAAAA3E00000000BF00000038
S11300E0803F0000000000084178D3BB4387D11350
S11300F03D190E3CC3BD4282AD2B3E68EC8276BEF8
S1130100D98FE1A93E4C80EFFFBE01C4FF7F3F00C1
S1130110000000000664EC1B3C04BC163E3BE5B941
S11301203CC93C37C29E5A3D660498083EEA69AA17
S1130130AA3E000000803F07634236B79BD8A71A47
S113014039685618AEBAAB558C1D3CB7CC5763BD55
S11301506DEDFD753EF6177231BF000000803F0063
S11301604E414E494E495459494E46CDCCCC3D0A98
S1130170D7233C17B7D13877CC2B329595E6241F7B
S1130180B14F0A000020410000C84200401C462034
S1130190BCBE4CCA1B0E5AAEC59D7400407A10F307
S11301A05A00A0724E18090010A5D4E80000E876A1
S11301B048170000E40B54020000CA9A3B000000F8
S11301C0E1F505000080969800000040420F000011
S11301D000A08601000000102700000000E80300D2
S11301E00000006400000000000A0000000000019C
S11301F000000000002C76D888DC674F0823DFC19C
S1130200DFAE59E1B1B796E5E3E453C63AE6519956
S11302107696E8E6C28426EB898C9B62ED407C6F7F
S1130220FCEFBC9C9F40F2BAA56FA5F490055A2A36
S1130230F75C936B6CF9676DC11BFCE0E40D47FE42
S1130240F520E6B500D0ED902E0300943577050037
S113025080841E080000204E0A000000C80C3333BE
S113026033330F986E12831141EF8D2114893BE6CD
S11302705516CFFEE6DB18D1844B381BF77C1D9056
S11302801DA4BBE424203284725E228100C9F124BF
S1130290ECA1E53D2700000000003E5149453E0029
S11302A0427F400042615149462141454B31181477
S11302B0127F1027454545393C4A494930017109A7
S11302C005033649494936064949291E7E1111114B
S11302D07E7F494949363E414141227F4141221CAA
S11302E07F494949417F090909013E4149497A7FCA
S11302F00808087F00417F41002040413F017F08FA
S11303001422417F404040407F020C027F7F04085A
S1130310107F3E4141413E7F090909063E4151217A
S11303205E7F09192946464949493101017F010186
S11303303F4040403F1F2040201F3F4038403F6324
S113034014081463070870080761514945430808F5
S11303503E0808080808080814083E081400363641
S113036000000060600000141414141400363600F9
S11303700004020102043E4141221848545454240A
S113038000447D40007C0804047838444444203808
S113039044444438043F4440202054545478001CBE
S11303A02241000041221C0000417F40000C5252B7
S11303B0523E11241FBECFEFD8E0DEBFCDBF12E006
S11303C0A0E0B1E0E8E7FAE302C005900D92AA3894
S11303D0B107D9F722E0AAE8B2E001C01D92A23920
S11303E0B207E1F70E948C030C943A1D0C940000B0
S11303F080E28093B800089584EA8093BC0088EE7C
S113040093E001C0C9012091BC0022232CF09C017F
S113041021503109892BB1F7089584E98093BC00F8
S113042008958093BB0084E88093BC0088EE93E039
S113043001C0C9012091BC0022232CF09C01215051
S11304403109892BB1F708958FE081B98FEF82B913
S113045084B1807F84B985B18F6085B98AB1857F85
S11304608AB98BB18A608BB9089582E084BD95E026
S113047095BD9DE497BD80936E0008951F920F92E1
S11304800FB60F9211242F933F934F935F936F9363
S11304907F938F939F93AF93BF93EF93FF931A9B95
S11304A040C0199B40C01B9B40C0189B40C0499B47
S11304B040C04B9B40C0E0E0F0E080E02EC021E073
S11304C030E00E2E02C0220F331F0A94E2F720956B
S11304D022B9000040E050E01AC020B130E0BA0177
S11304E06C5F7F4F02C0359527956A95E2F720FD32
S11304F00CC0CF01880F991F880F991F835E9E4FF0
S1130500DC01A40FB51F8C9105C04F5F5F4F4430D1
S113051051051CF3811110C03196E430F1057CF2D1
S11305200BC083E409C084E407C089E605C081E701
S113053003C08EE501C088E48823D1F090918B023A
S1130540891313C090918A029F5F90938A0293301B
S1130550A0F090910001992381F080938C0291E0A6
S113056090938D021092000108C010928A0205C077
S113057010928A0291E09093000180938B02FF9184
S1130580EF91BF91AF919F918F917F916F915F9107
S11305904F913F912F910F900FBE0F901F90189580
S11305A0AF92BF92CF92DF92EF92FF920F931F937D
S11305B0CF93DF938C016B017A01FB0110821182CE
S11305C012821382FA01108211821282138269E666
S11305D070E00E947916009709F486C0FC0110822D
S11305E06BE270E0E8012196CE010E9479165C016D
S11305F06DE270E0CE010E947916EC01A114B10401
S113060039F1E5011992C8010E946A16F601608366
S1130610718382839383CE010E946A16F7016083FB
S113062071838283938320E030E0A9010E944A12FF
S1130630811167C0F5018181811163C080E090E080
S1130640A0E8BFE3F70180839183A283B38359C0F9
S1130650009741F1FC0111925F01C8010E946A16E2
S1130660F6016083718382839383C5010E946A16B5
S11306709058F701608371838283938320E030E094
S1130680A9010E944A1281113CC08981811139C09B
S113069080E090E0A0E8BFEBF70180839183A28320
S11306A0B3832FC0F6011082118212821382C80113
S11306B00E946A16F701608371838283938320E02A
S11306C030E0A9010E944A1281111BC0F801808107
S11306D0811117C080E090E0A0E8BFE3F7018083B8
S11306E09183A283B3830DC0C8010E946A16F601E8
S11306F06083718382839383F70110821182128253
S11307001382DF91CF911F910F91FF90EF90DF90B3
S1130710CF90BF90AF900895CF93DF93CDB7DEB75E
S1130720CC5BD1090FB6F894DEBF0FBECDBF0E94DB
S1130730A10E0E94810F0E9424020E943502789427
S11307401A821982FE0133968EE3DF011D928A9587
S1130750E9F725961CAE1DAE1EAE1FAE2597299651
S11307601CAE1DAE1EAE1FAE29972D961CAE1DAE3F
S11307701EAE1FAE2D9761961CAE1DAE1EAE1FAEF3
S1130780619740E060E08DE291E00E946B0F42E0EF
S113079060E08AE391E00E946B0F43E060E086E44E
S11307A091E00E946B0F44E060E082E591E00E94DA
S11307B06B0F45E060E08EE591E00E946B0FA12C89
S11307C0CB54DF4F188219821A821B82C55BD0403A
S11307D0CF54DF4F188219821A821B82C15BD0402A
S11307E0C355DF4F188219821A821B82CD5AD0401A
S11307F0C755DF4F188219821A821B82C95AD0400A
S1130800CB55DF4F188219821A821B82C55AD040F9
S1130810C12CD12C7601C356DF4FC882D982EA821B
S1130820FB82CD59D040B12C712C80918D0288234C
S1130830E1F310918C0210928D02133421F5198288
S11308400E94810F40E060E08DE291E00E946B0F16
S113085042E060E08AE391E00E946B0F43E060E0D5
S113086086E491E00E946B0F44E060E082E591E051
S11308700E946B0F45E060E08EE591E00E946B0FF3
S1130880B12C712CD2CF872D90E08031910568F680
S1130890FC01E25CFF4F0C944416113361F419829D
S11308A00E94810F40E060E089E691E00E946B0FB6
S11308B077247394BACF123399F419820E94810F6A
S11308C040E060E086E791E00E946B0F42E060E068
S11308D08CE891E00E946B0F6894772471F8A5CF9F
S11308E01333A1F419820E94810F40E060E080E993
S11308F091E00E946B0F42E060E084EA91E00E9484
S11309006B0F0F2EF6E07F2EF02D8FCF143309F0EE
S11309108CCF19820E94810F40E060E089EA91E067
S11309200E946B0F42E060E087EB91E00E946B0F46
S11309300F2EFDE07F2EF02D78CF183479F481E06E
S1130940B11080E0182FB11002C088E401C080E229
S113095040E063E70E94D80EB12E67CF1D33D1F477
S1130960CE0101960E94D6118E010F5A1F4F23E02B
S113097047E00E944A1685E00E94A10F45E060E02E
S11309808CEB91E00E946B0F45E06EE1C8010E9480
S11309906B0F4BCF1434D9F4DE011196FD01019095
S11309A00020E9F73197EA1BFB0B1E161F060CF01B
S11309B03CCF3197EA0FFB1F108282E00E94A10F07
S11309C042E060E0CE0101960E946B0F2ECFBB2067
S11309D009F483C01B3279F4FE01319601900020A2
S11309E0E9F7319783E799E6918380838EE690E077
S11309F0938382836BC01D3279F4FE01319601909A
S1130A000020E9F7319783E69FE69183808383E7AB
S1130A1090E0938382835AC01A3279F4FE013196AE
S1130A2001900020E9F7319784E791E69183808370
S1130A308EE690E09383828349C01F3279F4FE01ED
S1130A40319601900020E9F7319783E69FE6918380
S1130A50808384E790E09383828338C01E3279F4E4
S1130A60FE01319601900020E9F731978CE69FE66C
S1130A709183808387E690E09383828327C0103339
S1130A8059F4FE01319601900020E9F7319788E28C
S1130A9090E0918380831AC0113359F4FE0131969A
S1130AA001900020E9F7319789E290E091838083F7
S1130AB00DC062961FAF629763961FAE6397BE0127
S1130AC06F5A7F4FCE0101960E946E1640E063E795
S1130AD080E20E94D80EB12C0DC062961FAF6297BF
S1130AE063961FAE6397BE016F5A7F4FCE01019686
S1130AF00E946E1682E00E94A10F42E060E0CE01E7
S1130B0001960E946B0F91CE143401F589818823DC
S1130B10E9F08E010F5F1F4FF80101900020E9F703
S1130B203197E01BF10B3197E00FF11F108282E047
S1130B300E94A10F42E060E08CE891E00E946B0FFC
S1130B4042E064E1C8010E946B0F6FCE1D33C1F413
S1130B50CE0101960E946A16C356DF4F68837983DB
S1130B608A839B83CD59D040198243E060E081ECB5
S1130B7091E00E946B0F0F2EF3E07F2EF02D55CEE7
S1130B8080ED810F8A3028F01E3219F01D3209F0F1
S1130B904CCE62961FAF629763961FAE6397BE01F9
S1130BA06F5A7F4FCE0101960E946E1642E064E1B7
S1130BB0CE0101960E946B0F38CE143401F5898161
S1130BC08823E9F08E010F5F1F4FF8010190002088
S1130BD0E9F73197E01BF10B3197E00FF11F108219
S1130BE083E00E94A10F43E060E081EC91E00E9469
S1130BF06B0F43E064E1C8010E946B0F16CE1D33F6
S1130C0089F4CE0101960E946A166B017C01198257
S1130C1044E060E085EC91E00E946B0F68947724D7
S1130C2072F803CE80ED810F8A3028F01E3219F05D
S1130C301D3209F0FACD62961FAF629763961FAE1C
S1130C406397BE016F5A7F4FCE0101960E946E16C4
S1130C5043E064E1CE0101960E946B0FE6CD1434AB
S1130C6001F589818823E9F08E010F5F1F4FF80198
S1130C7001900020E9F73197E01BF10B3197E00F69
S1130C80F11F108284E00E94A10F44E060E085EC33
S1130C9091E00E946B0F44E064E1C8010E946B0F75
S1130CA0C4CD1D3309F08CC1CE0101960E946A1691
S1130CB02B013C01198286E00E94A10F20E030E064
S1130CC0A901C356DF4F688179818A819B81CD59FF
S1130CD0D0400E944A1281114EC045E060E089EC88
S1130CE091E00E946B0F20E030E0A901C701B6013A
S1130CF00E944A12811117C020E030E0A901C3010B
S1130D00B2010E944A12811107C046E060E089EDF9
S1130D1091E00E946B0F49C146E060E088EE91E0EB
S1130D200E946B0F42C1C301B2019058A701960102
S1130D300E9454122B013C0120E030E0A9010E94E2
S1130D404A12811103C0412C512C32018E010F58DB
S1130D501F4F22E046E0C301B2010E944A1646E05A
S1130D6060E084EF91E00E946B0F46E069E1C80106
S1130D700E946B0F1AC1A7019601C701B6010E9418
S1130D801414CF56DF4F688379838A839B83C159B8
S1130D90D04020E030E040E850E4C356DF4F6881A3
S1130DA079818A819B81CD59D0400E9414149B0182
S1130DB0AC01C301B2010E9414149B01AC01CF56D3
S1130DC0DF4F688179818A819B81C159D0400E941B
S1130DD0DD112B013C0120E030E0A9010E944A1200
S1130DE088233CF446E060E088EE91E00E946B0FBB
S1130DF0DCC020E030E0A901C301B2010E944A1224
S1130E00811134C0C356DF4F288139814A815B8107
S1130E10CD59D040CA01B9010E94DE119B01AC0139
S1130E20C701B60190580E9454122B013C0120E0E6
S1130E3030E0A9010E944A12811103C0412C512CB7
S1130E4032018E010F581F4F22E046E0C301B20168
S1130E500E944A1646E060E088EF91E00E946B0F22
S1130E6046E068E2C8010E946B0F9FC0C301B20153
S1130E700E94DF14CF56DF4F688379838A839B8374
S1130E80C159D040A70196010E94DD112B013C01FC
S1130E90C356DF4F288139814A815B81CD59D040C7
S1130EA0CA01B9010E94DE11CB56DF4F68837983F2
S1130EB08A839B83C559D0409B01AC01C301B20115
S1130EC00E9454122B013C01CF56DF4F28813981F7
S1130ED04A815B81C159D040C701B60190580E9434
S1130EE0DD11CB56DF4F288139814A815B81C55999
S1130EF0D0400E945412CF56DF4F688379838A838F
S1130F009B83C159D04020E030E0A901C301B20164
S1130F100E944A12811103C0412C512C320120E05D
S1130F2030E0A901CF56DF4F688179818A819B81A6
S1130F30C159D0400E944A12811108C0CF56DF4FD8
S1130F40188219821A821B82C159D0408E010F580F
S1130F501F4F22E045E0C301B2010E944A1600522D
S1130F60110922E045E0CF56DF4F688179818A81FB
S1130F709B81C159D0400E944A1646E060E08FEF41
S1130F8091E00E946B0F46E064E1CE018F589F4FC1
S1130F900E946B0F46E061E483E092E00E946B0FD5
S1130FA046E065E5C8010E946B0F47E060E087E01A
S1130FB092E00E946B0F0F2EF5E07F2EF02D35CCC2
S1130FC080ED810F8A3028F01E3219F01D3209F0AD
S1130FD02CCC62961FAF629763961FAE6397BE01D7
S1130FE06F5A7F4FCE0101960E946E1644E064E171
S1130FF0CE0101960E946B0F18CC143401F589813F
S11310008823E9F08E010F5F1F4FF8010190002043
S1131010E9F73197E01BF10B3197E00FF11F1082D4
S113102082E00E94A10F42E060E084EA91E00E9425
S11310306B0F42E069E1C8010E946B0FF6CB1D33D0
S1131040C1F4CE0101960E946A16CB55DF4F688326
S113105079838A839B83C55AD040198243E060E038
S113106088E192E00E946B0F0F2EF7E07F2EF02DA7
S1131070DCCB80ED810F8A3028F01E3219F01D324E
S113108009F0D3CB62961FAF629763961FAE639746
S1131090BE016F5A7F4FCE0101960E946E1642E048
S11310A069E1CE0101960E946B0FBFCB143401F5A8
S11310B089818823E9F08E010F5F1F4FF8010190A9
S11310C00020E9F73197E01BF10B3197E00FF11F96
S11310D0108283E00E94A10F43E060E088E192E087
S11310E00E946B0F43E069E1C8010E946B0F9DCB26
S11310F01D33B9F4CE0101960E946A16C755DF4F1D
S1131100688379838A839B83C95AD040198244E0D7
S113111060E08DE192E00E946B0F6894772473F88D
S113112084CB80ED810F8A3028F01E3219F01D32F5
S113113009F07BCB62961FAF629763961FAE6397ED
S1131140BE016F5A7F4FCE0101960E946E1643E096
S113115069E1CE0101960E946B0F67CB143401F54F
S113116089818823E9F08E010F5F1F4FF8010190F8
S11311700020E9F73197E01BF10B3197E00FF11FE5
S1131180108284E00E94A10F44E060E08DE192E0CF
S11311900E946B0F44E069E1C8010E946B0F45CBCC
S11311A01D3301F5CE0101960E946A16C355DF4F27
S11311B0688379838A839B83CD5AD04019820E94A5
S11311C0810F40E060E082E292E00E946B0F42E017
S11311D060E086E392E00E946B0F0F2EF9E07F2E11
S11311E0F02D23CB80ED810F8A3028F01E3219F0C8
S11311F01D3209F01ACB62961FAF629763961FAE39
S11312006397BE016F5A7F4FCE0101960E946E16FE
S113121044E069E1CE0101960E946B0F06CB1434C1
S113122001F589818823E9F08E010F5F1F4FF801D2
S113123001900020E9F73197E01BF10B3197E00FA3
S1131240F11F108282E00E94A10F42E060E086E379
S113125092E00E946B0F42E069E1C8010E946B0FAB
S1131260E4CA1D33C1F4CE0101960E946A16CF541C
S1131270DF4F688379838A839B83C15BD040198263
S113128043E060E08BE392E00E946B0F0F2EFAE0E4
S11312907F2EF02DCACA80ED810F8A3028F01E32CD
S11312A019F01D3209F0C1CA62961FAF62976396A6
S11312B01FAE6397BE016F5A7F4FCE0101960E9405
S11312C06E1642E069E1CE0101960E946B0FADCA31
S11312D0143401F589818823E9F08E010F5F1F4FD3
S11312E0F80101900020E9F73197E01BF10B3197E9
S11312F0E00FF11F108283E00E94A10F43E060E041
S11313008BE392E00E946B0F43E069E1C8010E9405
S11313106B0F8BCA1D33C1F4CE0101960E946A166D
S1131320CB54DF4F688379838A839B83C55BD0402A
S1131330198244E060E080E492E00E946B0F0F2E7B
S1131340FBE07F2EF02D71CA80ED810F8A3028F0EA
S11313501E3219F01D3209F068CA62961FAF6297F7
S113136063961FAE6397BE016F5A7F4FCE010196FD
S11313700E946E1643E069E1CE0101960E946B0F54
S113138054CA143401F589818823E9F08E010F5F72
S11313901F4FF80101900020E9F73197E01BF10B92
S11313A03197E00FF11F108284E00E94A10F44E006
S11313B060E080E492E00E946B0F44E069E1C801C0
S11313C00E946B0F32CA1D3309F06CC1CE01019625
S11313D00E946A16CB56DF4F688379838A839B8386
S11313E0C559D0401982CB54DF4F288139814A81B5
S11313F05B81C55BD040CB55DF4F688179818A81A1
S11314009B81C55AD0400E9414142B013C01CF5437
S1131410DF4F288139814A815B81C15BD040C75548
S1131420DF4F688179818A819B81C95AD0400E94AB
S113143014149B01AC01C301B2010E94DD11CF560B
S1131440DF4F688379838A839B83C159D040CB540F
S1131450DF4F288139814A815B81C55BD040C35508
S1131460DF4F688179818A819B81CD5AD0400E9467
S113147014142B013C01CB56DF4F288139814A815A
S11314805B81C559D040C755DF4F688179818A8116
S11314909B81C95AD0400E9414149B01AC01C30122
S11314A0B2010E94DD112B013C01CB56DF4F288194
S11314B039814A815B81C559D040CB55DF4F688162
S11314C079818A819B81C55AD0400E941414CB56DD
S11314D0DF4F688379838A839B83C559D040CF5477
S11314E0DF4F288139814A815B81C15BD040C3557C
S11314F0DF4F688179818A819B81CD5AD0400E94D7
S113150014149B01AC01CB56DF4F688179818A8129
S11315109B81C559D0400E94DD11CB56DF4F6883B3
S113152079838A839B83C559D04086E00E94A10FAA
S113153020E030E0A901CF56DF4F688179818A81AC
S11315409B81C159D0400E944A12811126C020E0DB
S113155030E0A901C301B2010E944A12811116C0F0
S113156020E030E0A901CB56DF4F688179818A8180
S11315709B81C559D0400E944A12811107C046E0A0
S113158060E089ED91E00E946B0F81C046E060E06D
S113159088EE91E00E946B0F7AC0CF56DF4F28810E
S11315A039814A815B81C159D040C301B2010E9493
S11315B054122B013C01CF56DF4F288139814A81D7
S11315C05B81C159D040CB56DF4F688179818A81D4
S11315D09B81C559D0400E945412CF56DF4F688377
S11315E079838A839B83C159D04020E030E0A901EC
S11315F0C301B2010E944A12811103C0412C512C33
S1131600320120E030E0A901CF56DF4F68817981B3
S11316108A819B81C159D0400E944A12811108C01D
S1131620CF56DF4F188219821A821B82C159D040CB
S11316308E010F581F4F22E045E0C301B2010E9402
S11316404A160052110922E045E0CF56DF4F688167
S113165079818A819B81C159D0400E944A1646E013
S113166060E085E492E00E946B0F46E064E1CE0105
S11316708F589F4F0E946B0F46E061E489E492E02B
S11316800E946B0F46E065E5C8010E946B0F47E0BE
S113169060E087E092E00E946B0F0F2EFCE07F2E4B
S11316A0F02DC3C880ED810F8A3028F01E3219F066
S11316B01D3209F0BAC862961FAF629763961FAED7
S11316C06397BE016F5A7F4FCE0101960E946E163A
S11316D044E069E1CE0101960E946B0FA6C8143460
S11316E001F589818823E9F08E010F5F1F4FF8010E
S11316F001900020E9F73197E01BF10B3197E00FDF
S1131700F11F108282E00E94A10F42E060E087EBAB
S113171091E00E946B0F42E069E1C8010E946B0FE7
S113172084C81D33B1F4AE014B5B5F4FBE016F5BE8
S11317307F4FCE0101960E94D002198243E060E0FF
S11317408DE492E00E946B0F0F2EFEE07F2EF02DB1
S11317506CC880ED810F8A3048F01E3239F01D329A
S113176029F01B3219F0193609F05FC862961FAFD1
S1131770629763961FAE6397BE016F5A7F4FCE0187
S113178001960E946E1642E069E1CE0101960E9424
S11317906B0F4BC81B3239F01D3229F01A3219F085
S11317A01F3209F042C862961FAF629763961FAE5C
S11317B0639743E066E4CE018F5A9F4F0E946B0FFC
S11317C044E060E089E592E00E946B0FA12E0F2EA9
S11317D0FFE07F2EF02D29C8143401F58981882378
S11317E0E9F08E010F5F1F4FF80101900020E9F727
S11317F03197E01BF10B3197E00FF11F108284E069
S11318000E94A10F44E060E089E592E00E946B0F22
S113181044E069E1C8010E946B0F07C81D3309F059
S11318204BC2AE01435B5F4FBE01675B7F4FCE018E
S113183001960E94D0021982BBE2AB1227C0259602
S11318406CAD7DAD8EAD9FAD25972D962CAD3DAD88
S11318504EAD5FAD2D970E94DE11CF56DF4F6883EA
S113186079838A839B83C159D04029966CAD7DAD21
S11318708EAD9FAD299761962CAD3DAD4EAD5FAD5C
S113188061970E94DE112B013C01B1C18DE2A812C7
S113189027C025966CAD7DAD8EAD9FAD25972D9659
S11318A02CAD3DAD4EAD5FAD2D970E94DD11CF56F1
S11318B0DF4F688379838A839B83C159D0402996FB
S11318C06CAD7DAD8EAD9FAD299761962CAD3DADD0
S11318D04EAD5FAD61970E94DD112B013C0187C1C4
S11318E09AE2A91293C025968CAD9DADAEADBFAD65
S11318F02597CB56DF4F88839983AA83BB83C55929
S1131900D0402D964CAC5DAC6EAC7FAC2D97A30152
S11319109201BC01CD010E941414CF56DF4F68839D
S113192079838A839B83C159D04029968CAD9DAD20
S1131930AEADBFAD2997C756DF4F88839983AA837D
S1131940BB83C959D04061968CAD9DADAEADBFADE2
S11319506197CF55DF4F88839983AA83BB83C15A8C
S1131960D0409C01AD01C756DF4F688179818A81DF
S11319709B81C959D0400E9414149B01AC01CF56DD
S1131980DF4F688179818A819B81C159D0400E944F
S1131990DD11CF56DF4F688379838A839B83C159D6
S11319A0D040CF55DF4F288139814A815B81C15AAC
S11319B0D040CB56DF4F688179818A819B81C5599C
S11319C0D0400E941414CB56DF4F688379838A83F6
S11319D09B83C559D040C756DF4F288139814A813E
S11319E05B81C959D040C301B2010E9414149B0108
S11319F0AC01CB56DF4F688179818A819B81C559BF
S1131A00D0400E94DE112B013C01F1C09FE2A912DB
S1131A10D7C02D968CAD9DADAEADBFAD2D97CB5639
S1131A20DF4F88839983AA83BB83C559D0409C0127
S1131A30AD01BC01CD010E941414CF56DF4F688361
S1131A4079838A839B83C159D04061964CAC5DAC49
S1131A506EAC7FAC6197A3019201C301B2010E94F5
S1131A6014149B01AC01CF56DF4F688179818A81C0
S1131A709B81C159D0400E94DE11C756DF4F688355
S1131A8079838A839B83C959D04020E030E0A9013F
S1131A900E944A12882309F49FC025968CAD9DADFF
S1131AA0AEADBFAD2597CF55DF4F88839983AA8309
S1131AB0BB83C15AD0409C01AD01CB56DF4F688136
S1131AC079818A819B81C559D0400E941414CF56D4
S1131AD0DF4F688379838A839B83C159D0402996D9
S1131AE08CAD9DADAEADBFAD2997C754DF4F888394
S1131AF09983AA83BB83C95BD0409C01AD01C30118
S1131B00B2010E9414149B01AC01CF56DF4F6881CF
S1131B1079818A819B81C159D0400E94DE11C756C8
S1131B20DF4F288139814A815B81C959D0400E94A5
S1131B305412CF56DF4F688379838A839B83C159BC
S1131B40D040C754DF4F288139814A815B81C95B0A
S1131B50D040CB56DF4F688179818A819B81C559FA
S1131B60D0400E941414CB56DF4F688379838A8354
S1131B709B83C559D040CF55DF4F288139814A8195
S1131B805B81C15AD040C301B2010E9414149B016D
S1131B90AC01CB56DF4F688179818A819B81C5591D
S1131BA0D0400E94DD11C756DF4F288139814A8118
S1131BB05B81C959D0400E9454122B013C0117C0CB
S1131BC0412C512C3201CF56DF4F488259826A8210
S1131BD07B82C159D0400BC0412C512C3201CF56CD
S1131BE0DF4F488259826A827B82C159D0408E017C
S1131BF00F571F4F22E040E0CF56DF4F68817981B5
S1131C008A819B81C159D0400E944A16C301B20106
S1131C109F770051110922E040E00E944A1686E0B5
S1131C200E94A10F46E060E08EE592E00E946B0FF7
S1131C3020E030E0A901C301B2010E94B713882358
S1131C40BCF0C8019F930F9340969F938F9384E6B3
S1131C5092E09F938F93CE018F5A9F4F9F938F93C0
S1131C600E9492160FB6F894DEBF0FBECDBF18C007
S1131C70CE018F589F4F9F938F9340969F938F933E
S1131C808DE692E09F938F93CE018F5A9F4F9F933F
S1131C908F930E9492160FB6F894DEBF0FBECDBF8D
S1131CA046E063E2CE018F5A9F4F0E946B0F689407
S1131CB0772474F80C94150480ED810F8A3050F069
S1131CC01E3241F01D3231F01B3221F0193611F071
S1131CD00C94150462961FAF629763961FAE6397C8
S1131CE0BE016F5A7F4FCE0101960E946E1644E0EA
S1131CF069E1CE0101960E946B0F0C941504CF93F9
S1131D00C82F0E94FC0188E70E94110280E00E9413
S1131D1011028C2F0E9411020E940D02CF9108958E
S1131D20CF93C82F0E94FC0188E70E94110280E42F
S1131D300E9411028C2F0E9411020E940D02CF9169
S1131D4008951F93CF93DF93CDB7DEB76C970FB68B
S1131D50F894DEBF0FBECDBF8CE1E1E0F1E0DE011F
S1131D60119601900D928A95E1F70E94F8012FEFE8
S1131D7080E792E0215080409040E1F700C00000ED
S1131D8010E00AC0E1E0F0E0EC0FFD1FE10FF11DEF
S1131D9080810E947F0E1F5F1C31A0F36C960FB6EA
S1131DA0F894DEBF0FBECDBFDF91CF911F91089590
S1131DB01F93CF93DF93C62F8032C1F190ED980F1C
S1131DC09A3018F411ED180F5AC09FEB980F9A31FE
S1131DD018F41AEC180F53C08B3251F18D3251F1B3
S1131DE08A3251F18F3251F18E3251F18D3351F1EA
S1131DF08A3351F18E3551F1813751F1833751F1E5
S1131E00893651F18E3651F1833651F18F3651F1C5
S1131E10843751F1813651F1883251F1893251F1CF
S1131E208C3651F1873651F110E029C010E027C0FB
S1131E3015E225C016E223C017E221C018E21FC034
S1131E4019E21DC01AE21BC01BE219C01CE217C034
S1131E501DE215C01EE213C01FE211C010E30FC043
S1131E6011E30DC012E30BC013E309C014E307C070
S1131E7015E305C016E303C017E301C018E380EBC4
S1131E80840F0E947F0E8C2F8F700E947F0E8C2FE8
S1131E9082958F70805F0E947F0EC0E0D0E011C0F9
S1131EA0212F30E0F901EE0FFF1FEE0FFF1FE20FAD
S1131EB0F31FEC0FFD1FEB56FD4F84910E94900E13
S1131EC02196C530D10564F380E00E94900EDF9125
S1131ED0CF911F9108950F931F93CF93DF93EC013C
S1131EE0162F042F06C02196402F612F0E94D80E72
S1131EF01A5F88818111F7CFDF91CF911F910F91E4
S1131F0008951F93CF93DF9310E015C080EB810FEA
S1131F100E947F0E80E00E947F0E80E10E947F0E6F
S1131F20C0E0D0E004C080E00E94900E2196C0384A
S1131F30D105CCF31F5F183048F3DF91CF911F9187
S1131F400895CF93DF9380550E947F0E80E00E9416
S1131F507F0E80E10E947F0EC0E0D0E004C080E0EC
S1131F600E94900E2196C038D105CCF3DF91CF9119
S1131F7008956F927F928F929F92AF92BF92CF9269
S1131F80DF92EF92FF921F93CF93DF93C0918E0263
S1131F90D0918F0218811832C9F42196D0938F0200
S1131FA0C0938E020E94A111E0918E02F0918F02E3
S1131FB02081293209F057C13196F0938F02E093C2
S1131FC08E02562F472F382F292F51C143E050E05E
S1131FD066E772E0CE010E948416892BD1F4239621
S1131FE0D0938F02C0938E020E94B90F2BED3FE075
S1131FF049E450E40E94141420E030E044E353E444
S11320000E9454120E94D114562F472F382F292F83
S11320102EC143E050E06AE772E0CE010E948416CC
S1132020892BD1F42396D0938F02C0938E020E9401
S1132030B90F2BED3FE049E450E40E94141420E072
S113204030E044E353E40E9454120E944F12562F8E
S1132050472F382F292F0BC143E050E06EE772E081
S1132060CE010E948416892BD1F42396D0938F023B
S1132070C0938E020E94B90F2BED3FE049E450E477
S11320800E94141420E030E044E353E40E9454120C
S11320900E941F15562F472F382F292FE8C043E0E1
S11320A050E062E872E0CE010E948416892B11F59B
S11320B02396D0938F02C0938E020E94B90F2BED0A
S11320C03FE049E450E40E94141420E030E044E38B
S11320D053E40E9454120E941F159B01AC0160E05E
S11320E070E080E89FE30E945412562F472F382F48
S11320F0292FBDC043E050E066E872E0CE010E94A3
S11321008416892B71F42396D0938F02C0938E0288
S11321100E94B90F0E94BC13562F472F382F292F26
S1132120A6C0113771F42196D0938F02C0938E020A
S11321300E94B90F0E94DF14562F472F382F292FE2
S113214096C01D3249F42196D0938F02C0938E021B
S113215066246A94762C03C066246394712CC12C83
S1132160D12C760124C020E030E040E251E4C701E4
S1132170B6010E9414146B017C015E018FEFA81A52
S1132180B80AB0928F02A0928E02612F70E0605361
S11321907109072E000C880B990B0E94C8129B0131
S11321A0AC01C701B6010E94DE116B017C01C09134
S11321B08E02D0918F02188180ED810F8A3098F2BF
S11321C01E3209F03FC05E018FEFA81AB80AB09220
S11321D08F02A0928E020F2EFDEC8F2EFCEC9F2E10
S11321E0A92CFDE3BF2EF02D24C03196F0938F026D
S11321F0E0938E0270E060537109072E000C880B87
S1132200990B0E94C812A50194010E9414149B0109
S1132210AC01C701B6010E94DE116B017C0120E014
S113222030E040E251E4C501B4010E9454124B0174
S11322305C01E0918E02F0918F02608180ED860F47
S11322408A3098F2B301770C880B990B0E94C8125C
S11322509B01AC01C701B6010E941414562F472FED
S1132260382F292F04C0562F472F382F292F652F99
S1132270742F832F922FDF91CF911F91FF90EF90B6
S1132280DF90CF90BF90AF909F908F907F906F9092
S113229008950F931F93CF93DF930E94B90F062FD6
S11322A0172FD82FC92F37C03196F0938F02E093A0
S11322B08E022A3279F40E94B90F9B01AC01602F7F
S11322C0712F8D2F9C2F0E941414062F172FD82F97
S11322D0C92F21C02F3279F40E94B90F9B01AC01A0
S11322E0602F712F8D2F9C2F0E945412062F172FB1
S11322F0D82FC92F10C02E3571F40E94B90F9B013D
S1132300AC01602F712F8D2F9C2F0E948114062FFA
S1132310172FD82FC92FE0918E02F0918F022081C0
S11323202A3211F22F3209F4BFCF2E3509F4BCCF73
S1132330602F712F8D2F9C2FDF91CF911F910F91C3
S11323400895CF92DF92EF92FF920E9449116B01A0
S11323507C011CC03196F0938F02E0938E028B3285
S113236059F40E9449119B01AC01C701B6010E94B6
S1132370DE116B017C010AC00E9449119B01AC0172
S1132380C701B6010E94DD116B017C01E0918E0250
S1132390F0918F0280818B32E9F28D32D9F2C7013C
S11323A0B601FF90EF90DF90CF90089590938F0245
S11323B080938E020E94A11108955058BB27AA272A
S11323C00E94F5110C9469130E94301338F00E9496
S11323D0371320F039F49F3F19F426F40C942D138D
S11323E00EF4E095E7FB0C942713E92F0E948E135B
S11323F058F3BA17620773078407950720F079F436
S1132400A6F50C94B0130EF4E0950B2EBA2FA02D64
S11324100B01B90190010C01CA01A0011124FF278D
S1132420591B99F0593F50F4503E68F11A16F04088
S1132430A22F232F342F4427585FF3CF4695379587
S11324402795A795F0405395C9F77EF41F16BA0B4C
S1132450620B730B840BBAF09150A1F0FF0FBB1FFA
S1132460661F771F881FC2F70EC0BA0F621F731F43
S1132470841F48F4879577956795B795F7959E3FA0
S113248008F0B0CF9395880F08F09927EE0F979531
S1132490879508950E94031308F481E008950E942B
S11324A04013E3950C947A130E9468120C946913F8
S11324B00E94371358F00E94301340F029F45F3F14
S11324C029F00C94271351110C94B1130C942D136F
S11324D00E948E1368F39923B1F3552391F3951B4E
S11324E0550BBB27AA2762177307840738F09F5F31
S11324F05F4F220F331F441FAA1FA9F335D00E2E9E
S11325003AF0E0E832D091505040E695001CCAF70A
S11325102BD0FE2F29D0660F771F881FBB1F2617CD
S113252037074807AB07B0E809F0BB0B802DBF01A4
S1132530FF2793585F4F3AF09E3F510578F00C9473
S113254027130C94B1135F3FE4F3983ED4F38695BC
S113255077956795B795F7959F5FC9F7880F911D94
S11325609695879597F90895E1E0660F771F881F80
S1132570BB1F621773078407BA0720F0621B730B33
S1132580840BBA0BEE1F88F7E0950895E89409C010
S113259097FB3EF490958095709561957F4F8F4F92
S11325A09F4F9923A9F0F92F96E9BB279395F695A8
S11325B0879577956795B795F111F8CFFAF4BB0F26
S11325C011F460FF1BC06F5F7F4F8F4F9F4F16C08A
S11325D0882311F096E911C0772321F09EE8872F14
S11325E0762F05C0662371F096E8862F70E060E0D0
S11325F02AF09A95660F771F881FDAF7880F969549
S1132600879597F90895990F0008550FAA0BE0E8EC
S1132610FEEF16161706E807F907C0F012161306A0
S1132620E407F50798F0621B730B840B950B39F4E0
S11326300A2661F0232B242B252B21F408950A2646
S113264009F4A140A6958FEF811D811D089597F986
S11326509F6780E870E060E008959FEF80EC089544
S113266000240A941616170618060906089500246D
S11326700A94121613061406050608950C942D13D5
S11326800E949613D8F3E894E0E0BB279F57F0F03C
S11326902AED3FE049EC06C0EE0FBB0F661F771F23
S11326A0881F28F0B23A62077307840728F0B25AE9
S11326B0620B730B840BE3959A9572F7803830F4B0
S11326C09A95BB0F661F771F881FD2F790480C940A
S11326D08015092E0394000C11F4882352F0BB0FCB
S11326E040F4BF2B11F460FF04C06F5F7F4F8F4F26
S11326F09F4F0895EF93E0FF07C0A2EA2AED3FE061
S113270049EC5FEB0E94F5110E9469130F9003944A
S113271001FC9058ECE9F0E00C94BA1557FD905880
S1132720440F551F59F05F3F71F04795880F97FB91
S1132730991F61F09F3F79F087950895121613064B
S11327401406551FF2CF4695F1DF08C0161617067A
S11327501806991FF1CF86957105610508940895AF
S1132760E894BB2766277727CB0197F908950E9441
S1132770031308F48FEF08950E94CC1329ED3BE571
S11327804EED5EE30C94141416F00C947E150C9428
S11327902D1368940C9427130E949613A8F399237D
S11327A0C1F3AEF3DF93CF931F930F93FF92C92F1F
S11327B0DD2788232AF02197660F771F881FDAF711
S11327C020E030E040E85FEB9FE3883920F0803E72
S11327D038F021968F770E94DE11EAEBF0E004C016
S11327E00E94DE11E7EEF0E00E9493158B01BE011A
S11327F0EC01FB2E6F5771097595771F880B990BA8
S11328000E94C81228E132E741E35FE30E942714E3
S1132810AF2D9801AE01FF900F911F91CF91DF91E1
S11328200E94F5110C9469130E9427140C946913E7
S11328300E94301338F00E94371320F0952311F0D2
S11328400C9427130C942D1311240C94B1130E948F
S11328508E1370F3959FC1F3950F50E0551F629F3F
S1132860F001729FBB27F00DB11D639FAA27F00DE5
S1132870B11DAA1F649F6627B00DA11D661F829F0C
S11328802227B00DA11D621F739FB00DA11D621FF1
S1132890839FA00D611D221F749F3327A00D611D0E
S11328A0231F849F600D211D822F762F6A2F1124F0
S11328B09F5750409AF0F1F088234AF0EE0FFF1F23
S11328C0BB1F661F771F881F91505040A9F79E3F7A
S11328D0510580F00C9427130C94B1135F3FE4F37B
S11328E0983ED4F3869577956795B795F795E795D0
S11328F09F5FC1F7FE2B880F911D9695879597F9D9
S11329000895FA01EE0FFF1F309621053105A1F15C
S11329106115710561F48038BFE39B0749F1689440
S11329209038810561F08038BFEF9B0741F099230F
S11329304AF5FF3FE1053105210519F1E8940894B2
S1132940E795D901AA2329F4AB2FBE2FF85FD0F362
S113295010C0FF5F70F4A695E0F7F73950F019F056
S1132960FF3A38F49F779F930DD00F9007FC90584F
S1132970089546F00C942D1360E070E080E89FE326
S113298008954FE79F775F934F933F932F930E9450
S1132990CC132F913F914F915F910E9414140C948A
S11329A04C159F930E9440130F9007FCEE5F0C940C
S11329B07A1319F416F40C942D130C947E150E94BA
S11329C09613B8F39923C9F3B6F39F57550B87FFB2
S11329D00E948C150024A0E640EA90018058569588
S11329E0979528F4805C660F771F881F20F02617C0
S11329F03707480730F4621B730B840B20293129F5
S1132A004A2BA69517940794202531254A2758F771
S1132A10660F771F881F20F026173707480730F402
S1132A20620B730B840B200D311D411DA09581F7A2
S1132A30B901842F9158880F969587950895DF934F
S1132A40D92F0E944013E695D7952AED3FE049E43B
S1132A505FE3B33A6207730784079507D7953AF0A3
S1132A60A2EA49EC90680E94F5110E946913E4E11E
S1132A70F1E00E94BA15DD0F13F00E94CE15DD0FB0
S1132A800BF49058DF91089529F416F00C94271351
S1132A900C94B0130C942D130E949613A8F396383B
S1132AA0A0F707F80F92E8942BE33AEA48EB5FE7C4
S1132AB00E942A140F920F920F924DB75EB70F9295
S1132AC00E941016E7E3F1E00E9493154F915F9185
S1132AD0EF91FF91E595EE1FFF1F49F0FE57E06867
S1132AE04427EE0F441FFA95E1F74195550B0E94D8
S1132AF0DA150F9007FE0C94CE1508959F3F31F020
S1132B00915020F4879577956795B795880F911D17
S1132B109695879597F9089591505040660F771FC1
S1132B20881FD2F70895DF93CF931F930F93FF92DB
S1132B30EF92DF927B018C01689406C0DA2EEF01DC
S1132B400E942714FE01E894A591259135914591A1
S1132B505591A6F3EF010E94F511FE019701A8011A
S1132B60DA9469F7DF90EF90FF900F911F91CF9166
S1132B70DF9108959F938F937F936F93FF93EF93C8
S1132B809B01AC010E941414EF91FF910E949315D4
S1132B902F913F914F915F910C9414149B01AC01C0
S1132BA060E070E080E89FE30C9454120C942713C7
S1132BB00C947E150E949613D8F39923C9F3940FAD
S1132BC0511DA3F39150504094F059F0882332F0F2
S1132BD0660F771F881F91505040C1F79E3F5105E3
S1132BE02CF7880F911D9695879597F908955F3F67
S1132BF0ACF0983E9CF0BB27869577956795B79582
S1132C0008F4B1609395C1F7BB0F58F711F460FF56
S1132C10E8CF6F5F7F4F8F4F9F4FE3CF0C94B1137B
S1132C20FA01DC01AA0FBB1F9B01AC01BF5728F4BA
S1132C30222733274427507820C0B75190F4AB2F74
S1132C400024469537952795011CA395D2F30020BF
S1132C5071F0220F331F441FB395DAF30ED00C9496
S1132C60DD1161307105A0E88A07B94630F49B0193
S1132C70AC016627772788279078309621F0208347
S1132C803183428353830895EE0FFF1F0590F4911F
S1132C90E02D0994EF920F931F93CF93DF93E801F4
S1132CA047FD02C034E001C034E1042E000C550B92
S1132CB057FF03C0519541955109E32E022F242F4C
S1132CC0AE010E949518CE01DF91CF911F910F9113
S1132CD0EF900895662777270C94EF19FB01DC0128
S1132CE00D900020E9F7119701900D920020E1F773
S1132CF00895FC018191861721F08823D9F799273B
S1132D0008953197CF010895FB01DC0141505040F3
S1132D1030F08D910190801919F40020B9F7881BC7
S1132D20990B0895AEE0B0E0E8E9F6E10C94021DD9
S1132D300D891E8986E08C831A8309838FEF9FE7B0
S1132D409E838D83AE01475E5F4F6F89788DCE0180
S1132D5001960E94B416EF81F885E00FF11F1082EE
S1132D602E96E4E00C941E1DABE0B0E0EAEBF6E135
S1132D700C94F41C6C017B018A01FC0117821682FD
S1132D80838181FFCCC1CE0101963C01F601938180
S1132D90F70193FD859193FF81917F01882309F4C5
S1132DA0BAC1853239F493FD859193FF81917F01F6
S1132DB0853229F4B60190E00E944C1CE7CF912C97
S1132DC0212C312CFFE1F315D8F08B3279F038F453
S1132DD0803279F08332A1F4232D20611DC08D321D
S1132DE061F0803369F4232D216016C0832D826045
S1132DF0382EE32DE4603E2E2AC0F32DF8601DC06A
S1132E0037FC2DC020ED280F2A3040F08E32B9F463
S1132E1036FC81C1232D2064322E19C036FE06C033
S1132E208AE0989E200D1124922E11C0EAE02E9E75
S1132E30200D1124222EF32DF0623F2E08C08C3673
S1132E4021F4832D8068382E02C0883641F4F701BE
S1132E5093FD859193FF81917F018111B3CF982FC9
S1132E609F7D9554933028F40C5F1F4F9FE3998303
S1132E700DC0833631F0833771F0833509F059C0C2
S1132E8021C0F801808189830E5F1F4F88248394B9
S1132E90912C530113C02801F2E04F0E511CF8018C
S1132EA0A080B18036FE03C0692D70E002C06FEFD0
S1132EB07FEFC5010E94411C4C018201F32DFF7775
S1132EC03F2E16C0280122E0420E511CF801A080BA
S1132ED0B18036FE03C0692D70E002C06FEF7FEF52
S1132EE0C5010E94361C4C01F32DF0683F2E82016F
S1132EF033FC1BC0822D90E088169906B0F4B6010D
S1132F0080E290E00E944C1C2A94F4CFF50137FC37
S1132F10859137FE81915F01B60190E00E944C1CBF
S1132F2021102A9421E0821A91088114910471F7E6
S1132F30E8C0843611F0893641F5F80137FE07C040
S1132F4060817181828193810C5F1F4F08C0608111
S1132F507181072E000C880B990B0E5F1F4FF32D08
S1132F60FF763F2E97FF09C09095809570956195E7
S1132F707F4F8F4F9F4FF0683F2E2AE030E0A30130
S1132F800E94881C882E861845C0853731F4232D6D
S1132F902F7EB22E2AE030E025C0932D997FB92EE2
S1132FA08F36C1F018F4883579F0B5C0803719F040
S1132FB0883721F0B0C0E92FE061BE2EB4FE0DC009
S1132FC0FB2DF460BF2E09C034FE0AC0292F2660F1
S1132FD0B22E06C028E030E005C020E130E002C097
S1132FE020E132E0F801B7FE07C06081718182817F
S1132FF093810C5F1F4F06C06081718180E090E077
S11330000E5F1F4FA3010E94881C882E8618FB2D7B
S1133010FF773F2E36FE0DC0232D2E7FA22E89145E
S113302058F434FE0BC032FC09C0832D8E7EA82ECA
S113303005C0B82CA32C03C0B82C01C0B92CA4FE25
S11330400FC0FE01E80DF11D8081803321F49A2D1B
S1133050997EA92E09C0A2FE06C0B394B39404C0FD
S11330608A2D867809F0B394A3FC11C0A0FE06C093
S1133070B21488F4280C922C9B180EC0B21460F47D
S1133080B60180E290E00E944C1CB394F7CFB214D6
S113309018F42B1802C0982C212CA4FE10C0B601E1
S11330A080E390E00E944C1CA2FE17C0A1FC03C068
S11330B088E790E002C088E590E0B6010CC08A2D54
S11330C0867859F0A1FE02C08BE201C080E2A7FC21
S11330D08DE2B60190E00E944C1C891438F4B601CC
S11330E080E390E00E944C1C9A94F7CF8A94F301F9
S11330F0E80DF11D8081B60190E00E944C1C811006
S1133100F5CF222009F442CEB60180E290E00E947D
S11331104C1C2A94F6CFF6018681978102C08FEF6A
S11331209FEF2B96E2E10C94101DA9E0B0E0EBE9CF
S1133130F8E10C94FA1C6A01122FB02E2BE320172D
S113314020F0FF24F394F00E02C02CE3F22E0F2D96
S113315027E0AE014F5F5F4F0E943D1BBC014981D8
S1133160842F8970813031F0E1FC06C0E0FE06C096
S113317090E205C09DE203C09BE201C090E05E2D99
S1133180507143FF3CC0911102C083E001C084E050
S1133190811718F4212F281B01C020E051110BC006
S11331A0F601822F30E2882319F031938150FBCF4E
S11331B0C20ED11C20E0992329F0D6019C93F6017C
S11331C031966F01C6010396E2FE0AC03EE4D601C1
S11331D03C9341E411964C93119712963C9306C08C
S11331E03EE6F601308341E641833283FC01322F0F
S11331F040E2332309F442C041933150FACF42FFF5
S113320044C0911102C083E001C084E0811718F426
S1133210212F281B01C020E051110BC0F601822F81
S113322030E2882319F031938150FBCFC20ED11CB8
S113323020E0992329F0D6019C93F60131966F0181
S1133240C6010396E2FE0BC039E4D6013C933EE48A
S113325011963C93119736E412963C9307C039E6D5
S1133260F60130833EE6318336E63283FC01322FA9
S113327040E2332319F041933150FBCFFC01E20FBC
S1133280F11D10828EEF9FEFA6C021E030E0911176
S113329002C020E030E0161617061CF4FB0131963C
S11332A002C0E1E0F0E02E0F3F1FBB2021F0EB2D28
S11332B0F0E0319602C0E0E0F0E02E0F3F1FE12F76
S11332C0F0E02E173F071CF4121B212F01C020E051
S11332D08E2D887159F4F601822F30E2882319F07B
S11332E031938150FBCFC20ED11C20E0992329F0E9
S11332F0D6019C93F60131966F0151110BC0F60172
S1133300822F90E3882319F091938150FBCFC20E52
S1133310D11C20E00F2D060F9A81342F307144FF09
S113332003C0913309F40150101624F4093018F045
S113333008E001C001E0AB0177FF02C040E050E0CB
S1133340FB01E41BF50BA1E0B0E0AC0FBD1FEA0FDD
S1133350FB1F8EE2A82E4B01801A91080B2D10E062
S11333601195019511094F3FBFEF5B0721F4D60179
S1133370AC9211966D01641775072CF084169506AE
S113338014F4818101C080E3415051093196D60182
S113339011967D014017510724F0D6018C936701E3
S11333A0E2CF6417750739F4963320F4953319F492
S11333B0311101C081E3F6018083F701822F90E28D
S11333C0882319F091938150FBCFF701E20FF11D8F
S11333D0108280E090E02996ECE00C94161DA0E0A9
S11333E0B0E0E5EFF9E10C94FA1CEC016B01611516
S11333F0710519F0FB01918380837E01FFEFEF1AC1
S1133400FF0A0881802F90E00E94151C892B11F07F
S1133410E701F3CF0D3239F47E0182E0E80EF11CAE
S1133420098111E008C00B3229F47E0192E0E90E13
S1133430F11C098110E0E701219743E050E068E6C0
S113344071E0CE010E941E1C892BC1F4239645E035
S113345050E063E671E0CE010E941E1C892B09F442
S11334602596C114D10419F0F601D183C08311113A
S1133470F6C060E070E080E89FE7FAC043E050E007
S113348060E671E0CE010E941E1C892B59F4C11420
S1133490D10409F4E9C0F2E0EF0EF11CF601F18267
S11334A0E082E2C020E030E0A901C0E0D0E0F70112
S11334B080EDA82EA00E89E08A1530F1912F92603C
S11334C0B92E812F887012FF04C0811124C0219667
S11334D022C081112197A5E0B0E00E94E91CDC0123
S11334E0CB01880F991FAA1FBB1F9C01AD012A0D98
S11334F0311D411D511D283989E93807480789E1E3
S1133500580748F0166006C09EEFA9120AC013FDC2
S113351040C01860B12E8FEFE81AF80A00811B2D05
S1133520C6CF802F8F7D8534A1F580818D3211F433
S1133530106106C08B3221F0319661E070E004C066
S11335408181329662E070E080538A3018F0E61B85
S1133550F70B1FC060E070E060389CE079075CF412
S1133560DB01AA0FBB1FAA0FBB1F6A0F7B1F660FCD
S1133570771F680F711D3196DF0111978C9180536D
S11335808A3050F314FF03C0719561957109C60F19
S1133590D71F11FF08C0C114D10429F0CF0101972E
S11335A0F60191838083CA01B9010E94C612212FBA
S11335B02370233019F04B015C0106C04B015C0100
S11335C0B7FAB094B7F8B09420E030E0A901C5018F
S11335D0B4010E944A12882309F43EC0D7FF06C0F2
S11335E0D195C195D1090FE711E002C007E911E0B7
S11335F06801F8E1CF1AD10890E2E92EF12CCE153A
S1133600DF0574F0F8012591359145915491C50178
S1133610B4010E9414144B015C01CE19DF09EFCFF1
S113362004501109F594E7940C151D0541F78A2DF2
S1133630880F8B2D881F8F3F49F020E030E0A901CF
S1133640C501B4010E944A12811106C082E290E0D1
S11336509093910280939002C501B40109C060E087
S113366070E080E89FEF04C060E070E080EC9FE7CA
S1133670CDB7DEB7ECE00C94161D283008F027E037
S11336803327DA01990F311D87FD9160009661059A
S1133690710539F432602E5F3D9330E32A95E1F7EA
S11336A008959F3F30F080387105610509F03C5F53
S11336B03C5F3D93913008F08068911DDF93CF9378
S11336C01F930F93FF92EF92192F987F9695E92FEE
S11336D096959695E90FFF27EB50FE4F99273327D0
S11336E0EE24FF24A701E70105900894079428F429
S11336F0360FE71EF81E491F511D660F771F881FDE
S1133700991F0694A1F70590079428F4E70EF81E74
S1133710491F561FC11D770F881F991F661F0694E6
S1133720A1F70590079428F4F80E491F561FC71FE8
S1133730D11D880F991F661F771F0694A1F7059066
S1133740079420F4490F561FC71FD81F990F661FEF
S1133750771F881F0694A9F784911095177041F07C
S1133760D695C79557954795F794E7941A95C1F759
S1133770EBE9F1E068941590159135916591959177
S113378005907FE27395E118F10A430B560BC90BC0
S1133790D009C0F7E10CF11E431F561FC91FD01DED
S11337A07EF4703311F48A95E6CFE894015030F03A
S11337B0080F0AF40027021708F4202F2395022F7C
S11337C07A3328F079E37D932A95E9F710C07D9345
S11337D02A9589F6069497956795379517951794C2
S11337E0E118F10A430B560BC90BD00998F0239545
S11337F07E9173957A3308F070E37C932013B8F7C5
S11338007E9170617D9330F0839571E37D9370E3D5
S11338102A95E1F71124EF90FF900F911F91CF911A
S1133820DF91992787FD9095089591110C94E61CDA
S1133830803219F089508550C8F70895FB01DC01E6
S11338404150504088F08D9181341CF08B350CF43C
S1133850805E659161341CF06B350CF4605E861BF0
S1133860611171F3990B0895881BFCCFFC0105903D
S1133870615070400110D8F7809590958E0F9F1F6E
S11338800895FC016150704001900110D8F78095B3
S113389090958E0F9F1F08950F931F93CF93DF93DF
S11338A0FB01238121FD03C08FEF9FEF2CC022FF7A
S11338B016C046815781248135814217530744F449
S11338C0A081B1819D012F5F3F4F318320838C9371
S11338D0268137812F5F3F4F3783268314C08B01A6
S11338E0EC01FB010084F185E02D0995892BE1F6BB
S11338F0D80116968D919C911797019617969C93D3
S11339008E931697CE01DF91CF911F910F91089559
S1133910FA01AA27283051F1203181F1E8946F93FC
S11339206E7F6E5F7F4F8F4F9F4FAF4FB1E03ED0A2
S1133930B4E03CD0670F781F891F9A1FA11D680F40
S1133940791F8A1F911DA11D6A0F711D811D911D73
S1133950A11D20D009F468943F912AE0269F1124E8
S11339603019305D3193DEF6CF010895462F47704C
S1133970405D4193B3E00FD0C9F7F6CF462F4F70A7
S1133980405D4A3318F0495D31FD4052419302D005
S1133990A9F7EACFB4E0A6959795879577956795AB
S11339A0BA95C9F700976105710508959B01AC01AB
S11339B00A2E06945795479537952795BA95C9F7D2
S11339C0620F731F841F951FA01D089599278827D0
S11339D008950E942B1DA59F900DB49F900DA49F48
S11339E0800D911D112408952F923F924F925F9262
S11339F06F927F928F929F92AF92BF92CF92DF92FB
S1133A00EF92FF920F931F93CF93DF93CDB7DEB75F
S1133A10CA1BDB0B0FB6F894DEBF0FBECDBF0994F3
S1133A202A88398848885F846E847D848C849B844A
S1133A30AA84B984C884DF80EE80FD800C811B8158
S1133A40AA81B981CE0FD11D0FB6F894DEBF0FBE87
S1133A50CDBFED010895A29FB001B39FC001A39F04
S1133A60700D811D1124911DB29F700D811D1124B3
S10B3A70911D0895F894FFCFA5
S1133A7801AE2010B0C800104081FFA1A6A83FA441
S1133A88D300D5F0D922DA12DB208D14AF2E2F2AD9
S1133A983D38392B2D343536373031323343484F9E
S1133AA84F5345204D4F44453A00312E2053434946
S1133AB82043414C4300322E20505420424143209D
S1133AC83200332E20485054203220414E00342EE8
S1133AD820534F2050485543004D4F444520313A18
S1133AE82043414C430050543A2041585E32202B25
S1133AF8204258202B2043203D203000413A20000A
S1133B084850543A20413158202B20423159203D05
S1133B182043310041313A20004D4F444520343A86
S1133B2820434D504C58005A313A2000416E733AA4
S1133B3800423A2000433A2000413D30202D3E20E7
S1133B48505420426163203100564F20534F204E79
S1133B58474849454D202100564F204E474849457E
S1133B684D20210058203D0058313D58323D005821
S1133B78313A0058323A00505245535320414320B9
S1133B88544F204241434B0042313A200043313ADA
S1133B9820004850543A20413258202B20423259B0
S1133BA8203D2043320041323A200042323A20007C
S1133BB843323A2000583A2000593A20004F502006
S1133BC8282B2D2A2F293A20005A323A2000416EF8
S1133BD8733A20002573202B202573690025732050
S1133BE82D202573690073696E00636F7300746117
S10D3BF86E00636F74006C6F6700C9
S9030000FC
